{
  "_format": "hh-sol-artifact-1",
  "contractName": "AgentMech",
  "sourceName": "contracts/AgentMech.sol",
  "abi": [
    {
      "inputs": [
        {
          "internalType": "address",
          "name": "_token",
          "type": "address"
        },
        {
          "internalType": "uint256",
          "name": "_tokenId",
          "type": "uint256"
        },
        {
          "internalType": "uint256",
          "name": "_price",
          "type": "uint256"
        }
      ],
      "stateMutability": "nonpayable",
      "type": "constructor"
    },
    {
      "inputs": [
        {
          "internalType": "uint256",
          "name": "agentId",
          "type": "uint256"
        }
      ],
      "name": "AgentNotFound",
      "type": "error"
    },
    {
      "inputs": [
        {
          "internalType": "uint256",
          "name": "provided",
          "type": "uint256"
        },
        {
          "internalType": "uint256",
          "name": "expected",
          "type": "uint256"
        }
      ],
      "name": "NotEnoughPaid",
      "type": "error"
    },
    {
      "inputs": [],
      "name": "ZeroAddress",
      "type": "error"
    },
    {
      "anonymous": false,
      "inputs": [
        {
          "indexed": false,
          "internalType": "uint256",
          "name": "requestId",
          "type": "uint256"
        },
        {
          "indexed": false,
          "internalType": "bytes",
          "name": "data",
          "type": "bytes"
        }
      ],
      "name": "Deliver",
      "type": "event"
    },
    {
      "anonymous": false,
      "inputs": [
        {
          "indexed": true,
          "internalType": "address",
          "name": "sender",
          "type": "address"
        },
        {
          "indexed": false,
          "internalType": "bytes32",
          "name": "taskHash",
          "type": "bytes32"
        }
      ],
      "name": "Perform",
      "type": "event"
    },
    {
      "anonymous": false,
      "inputs": [
        {
          "indexed": false,
          "internalType": "uint256",
          "name": "price",
          "type": "uint256"
        }
      ],
      "name": "PriceUpdated",
      "type": "event"
    },
    {
      "anonymous": false,
      "inputs": [
        {
          "indexed": true,
          "internalType": "address",
          "name": "sender",
          "type": "address"
        },
        {
          "indexed": false,
          "internalType": "uint256",
          "name": "requestId",
          "type": "uint256"
        },
        {
          "indexed": false,
          "internalType": "bytes",
          "name": "data",
          "type": "bytes"
        }
      ],
      "name": "Request",
      "type": "event"
    },
    {
      "inputs": [
        {
          "internalType": "uint256",
          "name": "requestId",
          "type": "uint256"
        },
        {
          "internalType": "bytes",
          "name": "data",
          "type": "bytes"
        }
      ],
      "name": "deliver",
      "outputs": [],
      "stateMutability": "nonpayable",
      "type": "function"
    },
    {
      "inputs": [],
      "name": "entryPoint",
      "outputs": [
        {
          "internalType": "contract IEntryPoint",
          "name": "",
          "type": "address"
        }
      ],
      "stateMutability": "view",
      "type": "function"
    },
    {
      "inputs": [
        {
          "internalType": "address",
          "name": "to",
          "type": "address"
        },
        {
          "internalType": "uint256",
          "name": "value",
          "type": "uint256"
        },
        {
          "internalType": "bytes",
          "name": "data",
          "type": "bytes"
        },
        {
          "internalType": "enum Enum.Operation",
          "name": "operation",
          "type": "uint8"
        },
        {
          "internalType": "uint256",
          "name": "txGas",
          "type": "uint256"
        }
      ],
      "name": "exec",
      "outputs": [
        {
          "internalType": "bytes",
          "name": "returnData",
          "type": "bytes"
        }
      ],
      "stateMutability": "nonpayable",
      "type": "function"
    },
    {
      "inputs": [
        {
          "internalType": "address",
          "name": "account",
          "type": "address"
        },
        {
          "internalType": "bytes",
          "name": "data",
          "type": "bytes"
        }
      ],
      "name": "getRequestId",
      "outputs": [
        {
          "internalType": "uint256",
          "name": "requestId",
          "type": "uint256"
        }
      ],
      "stateMutability": "pure",
      "type": "function"
    },
    {
      "inputs": [
        {
          "internalType": "address",
          "name": "signer",
          "type": "address"
        }
      ],
      "name": "isOperator",
      "outputs": [
        {
          "internalType": "bool",
          "name": "",
          "type": "bool"
        }
      ],
      "stateMutability": "view",
      "type": "function"
    },
    {
      "inputs": [
        {
          "internalType": "bytes32",
          "name": "hash",
          "type": "bytes32"
        },
        {
          "internalType": "bytes",
          "name": "signature",
          "type": "bytes"
        }
      ],
      "name": "isValidSignature",
      "outputs": [
        {
          "internalType": "bytes4",
          "name": "magicValue",
          "type": "bytes4"
        }
      ],
      "stateMutability": "view",
      "type": "function"
    },
    {
      "inputs": [],
      "name": "nonce",
      "outputs": [
        {
          "internalType": "uint256",
          "name": "",
          "type": "uint256"
        }
      ],
      "stateMutability": "view",
      "type": "function"
    },
    {
      "inputs": [
        {
          "internalType": "address",
          "name": "",
          "type": "address"
        },
        {
          "internalType": "address",
          "name": "",
          "type": "address"
        },
        {
          "internalType": "uint256[]",
          "name": "",
          "type": "uint256[]"
        },
        {
          "internalType": "uint256[]",
          "name": "",
          "type": "uint256[]"
        },
        {
          "internalType": "bytes",
          "name": "",
          "type": "bytes"
        }
      ],
      "name": "onERC1155BatchReceived",
      "outputs": [
        {
          "internalType": "bytes4",
          "name": "",
          "type": "bytes4"
        }
      ],
      "stateMutability": "pure",
      "type": "function"
    },
    {
      "inputs": [
        {
          "internalType": "address",
          "name": "",
          "type": "address"
        },
        {
          "internalType": "address",
          "name": "",
          "type": "address"
        },
        {
          "internalType": "uint256",
          "name": "",
          "type": "uint256"
        },
        {
          "internalType": "uint256",
          "name": "",
          "type": "uint256"
        },
        {
          "internalType": "bytes",
          "name": "",
          "type": "bytes"
        }
      ],
      "name": "onERC1155Received",
      "outputs": [
        {
          "internalType": "bytes4",
          "name": "",
          "type": "bytes4"
        }
      ],
      "stateMutability": "pure",
      "type": "function"
    },
    {
      "inputs": [
        {
          "internalType": "address",
          "name": "",
          "type": "address"
        },
        {
          "internalType": "address",
          "name": "",
          "type": "address"
        },
        {
          "internalType": "uint256",
          "name": "",
          "type": "uint256"
        },
        {
          "internalType": "bytes",
          "name": "",
          "type": "bytes"
        }
      ],
      "name": "onERC721Received",
      "outputs": [
        {
          "internalType": "bytes4",
          "name": "",
          "type": "bytes4"
        }
      ],
      "stateMutability": "pure",
      "type": "function"
    },
    {
      "inputs": [],
      "name": "price",
      "outputs": [
        {
          "internalType": "uint256",
          "name": "",
          "type": "uint256"
        }
      ],
      "stateMutability": "view",
      "type": "function"
    },
    {
      "inputs": [
        {
          "internalType": "bytes",
          "name": "data",
          "type": "bytes"
        }
      ],
      "name": "request",
      "outputs": [
        {
          "internalType": "uint256",
          "name": "requestId",
          "type": "uint256"
        }
      ],
      "stateMutability": "payable",
      "type": "function"
    },
    {
      "inputs": [
        {
          "internalType": "uint256",
          "name": "newPrice",
          "type": "uint256"
        }
      ],
      "name": "setPrice",
      "outputs": [],
      "stateMutability": "nonpayable",
      "type": "function"
    },
    {
      "inputs": [
        {
          "internalType": "bytes",
          "name": "initParams",
          "type": "bytes"
        }
      ],
      "name": "setUp",
      "outputs": [],
      "stateMutability": "nonpayable",
      "type": "function"
    },
    {
      "inputs": [],
      "name": "token",
      "outputs": [
        {
          "internalType": "contract IERC721",
          "name": "",
          "type": "address"
        }
      ],
      "stateMutability": "view",
      "type": "function"
    },
    {
      "inputs": [],
      "name": "tokenId",
      "outputs": [
        {
          "internalType": "uint256",
          "name": "",
          "type": "uint256"
        }
      ],
      "stateMutability": "view",
      "type": "function"
    },
    {
      "inputs": [
        {
          "internalType": "address",
          "name": "",
          "type": "address"
        },
        {
          "internalType": "address",
          "name": "",
          "type": "address"
        },
        {
          "internalType": "address",
          "name": "",
          "type": "address"
        },
        {
          "internalType": "uint256",
          "name": "",
          "type": "uint256"
        },
        {
          "internalType": "bytes",
          "name": "",
          "type": "bytes"
        },
        {
          "internalType": "bytes",
          "name": "",
          "type": "bytes"
        }
      ],
      "name": "tokensReceived",
      "outputs": [],
      "stateMutability": "pure",
      "type": "function"
    },
    {
      "inputs": [
        {
          "components": [
            {
              "internalType": "address",
              "name": "sender",
              "type": "address"
            },
            {
              "internalType": "uint256",
              "name": "nonce",
              "type": "uint256"
            },
            {
              "internalType": "bytes",
              "name": "initCode",
              "type": "bytes"
            },
            {
              "internalType": "bytes",
              "name": "callData",
              "type": "bytes"
            },
            {
              "internalType": "uint256",
              "name": "callGasLimit",
              "type": "uint256"
            },
            {
              "internalType": "uint256",
              "name": "verificationGasLimit",
              "type": "uint256"
            },
            {
              "internalType": "uint256",
              "name": "preVerificationGas",
              "type": "uint256"
            },
            {
              "internalType": "uint256",
              "name": "maxFeePerGas",
              "type": "uint256"
            },
            {
              "internalType": "uint256",
              "name": "maxPriorityFeePerGas",
              "type": "uint256"
            },
            {
              "internalType": "bytes",
              "name": "paymasterAndData",
              "type": "bytes"
            },
            {
              "internalType": "bytes",
              "name": "signature",
              "type": "bytes"
            }
          ],
          "internalType": "struct UserOperation",
          "name": "userOp",
          "type": "tuple"
        },
        {
          "internalType": "bytes32",
          "name": "userOpHash",
          "type": "bytes32"
        },
        {
          "internalType": "uint256",
          "name": "missingAccountFunds",
          "type": "uint256"
        }
      ],
      "name": "validateUserOp",
      "outputs": [
        {
          "internalType": "uint256",
          "name": "validationData",
          "type": "uint256"
        }
      ],
      "stateMutability": "nonpayable",
      "type": "function"
    },
    {
      "stateMutability": "payable",
      "type": "receive"
    }
  ],
  "bytecode": "0x6080604052600080553480156200001557600080fd5b5060405162001d4538038062001d4583398101604081905262000038916200039f565b604080516001600160a01b038516602082015280820184905281518082038301815260609091019091528390839062000071816200014a565b5050506001600160a01b0383166200009c5760405163d92e233d60e01b815260040160405180910390fd5b6040516331a9108f60e11b8152600481018390526000906001600160a01b03851690636352211e90602401602060405180830381865afa158015620000e5573d6000803e3d6000fd5b505050506040513d601f19601f820116820180604052508101906200010b9190620003d7565b90506001600160a01b0381166200013d57604051630ede975960e01b8152600481018490526024015b60405180910390fd5b5060015550620004b39050565b62000154620001b2565b5115620001a45760405162461bcd60e51b815260206004820152601360248201527f416c726561647920696e697469616c697a656400000000000000000000000000604482015260640162000134565b620001af816200021f565b50565b60606200021a62000214604051606b60f91b6020820152602560fa1b60218201526001600160601b03193060601b166022820152600160f81b60368201526000906037016040516020818303038152906040528051906020012060001c905090565b620002ed565b905090565b60006200022c8262000346565b905060008151602083016000f0905062000297604051606b60f91b6020820152602560fa1b60218201526001600160601b03193060601b166022820152600160f81b60368201526000906037016040516020818303038152906040528051906020012060001c905090565b6001600160a01b0316816001600160a01b031614620002e85760405162461bcd60e51b815260206004820152600c60248201526b15dc9a5d194819985a5b195960a21b604482015260640162000134565b505050565b6060813b6001811162000310575050604080516020810190915260008152919050565b806200031c8162000412565b9150506040519150601f19601f602083010116820160405280825280600160208401853c50919050565b6060815160016200035891906200042c565b826040516020016200036c92919062000448565b6040516020818303038152906040529050919050565b80516001600160a01b03811681146200039a57600080fd5b919050565b600080600060608486031215620003b557600080fd5b620003c08462000382565b925060208401519150604084015190509250925092565b600060208284031215620003ea57600080fd5b620003f58262000382565b9392505050565b634e487b7160e01b600052601160045260246000fd5b600081620004245762000424620003fc565b506000190190565b80820180821115620004425762000442620003fc565b92915050565b606360f81b815260e083901b6001600160e01b03191660018201526880600e6000396000f360b81b60058201526000600e82018190528251815b81811015620004a1576020818601810151600f86840101520162000482565b5060009201600f019182525092915050565b61188280620004c36000396000f3fe60806040526004361061012c5760003560e01c8063a4f9edbf116100a5578063bc197c8111610074578063e00b911811610059578063e00b911814610371578063f23a6e6114610391578063fc0c546a146103be57600080fd5b8063bc197c8114610315578063c7dec3fc1461034457600080fd5b8063a4f9edbf14610292578063affed0e0146102b2578063b0d691fe146102c7578063b94207d31461030257600080fd5b806317d70f7c116100fc5780636d70f7ae116100e15780636d70f7ae1461022c57806391b7f5ed1461025c578063a035b1fe1461027c57600080fd5b806317d70f7c146101e95780633a871cdd1461020c57600080fd5b806223de2914610138578063150b7a021461015f578063157305fe146101a95780631626ba7e146101c957600080fd5b3661013357005b600080fd5b34801561014457600080fd5b5061015d610153366004611118565b5050505050505050565b005b34801561016b57600080fd5b5061018b61017a3660046111c9565b630a85bd0160e11b95945050505050565b6040516001600160e01b031990911681526020015b60405180910390f35b3480156101b557600080fd5b5061015d6101c43660046112df565b6103d3565b3480156101d557600080fd5b5061018b6101e43660046112df565b6104ae565b3480156101f557600080fd5b506101fe6105db565b6040519081526020016101a0565b34801561021857600080fd5b506101fe610227366004611326565b610600565b34801561023857600080fd5b5061024c61024736600461137a565b61063e565b60405190151581526020016101a0565b34801561026857600080fd5b5061015d610277366004611397565b6106ed565b34801561028857600080fd5b506101fe60015481565b34801561029e57600080fd5b5061015d6102ad3660046113b0565b6107c1565b3480156102be57600080fd5b506000546101fe565b3480156102d357600080fd5b50730576a174d229e3cfa37253523e645a78a0c91b575b6040516001600160a01b0390911681526020016101a0565b6101fe6103103660046113b0565b610823565b34801561032157600080fd5b5061018b610330366004611432565b63bc197c8160e01b98975050505050505050565b34801561035057600080fd5b5061036461035f3660046114d0565b6108a9565b6040516101a09190611598565b34801561037d57600080fd5b506101fe61038c3660046115ab565b61097a565b34801561039d57600080fd5b5061018b6103ac3660046115e5565b63f23a6e6160e01b9695505050505050565b3480156103ca57600080fd5b506102ea6109ae565b6103dc3361063e565b806103fa575033730576a174d229e3cfa37253523e645a78a0c91b57145b6104715760405162461bcd60e51b815260206004820152603e60248201527f4f6e6c792063616c6c61626c6520627920746865206d656368206f706572617460448201527f6f72206f722074686520656e74727920706f696e7420636f6e7472616374000060648201526084015b60405180910390fd5b7f3ec84da2cdc1ce60c063642b69ff2e65f3b69787a2b90443457ba274e51e7c7282826040516104a2929190611661565b60405180910390a15050565b6000806000806104d1856020810151604082015160609092015160001a92909190565b9094509250905060ff811660000361059f57828583016020016104f38261063e565b15801561050957506001600160a01b0382163014155b1561052457506001600160e01b031994506105d59350505050565b604051630b135d3f60e11b81526001600160a01b03831690631626ba7e90610552908b908590600401611661565b602060405180830381865afa15801561056f573d6000803e3d6000fd5b505050506040513d601f19601f82011682018060405250810190610593919061167a565b955050505050506105d5565b6105ae610247878386866109cc565b156105c65750630b135d3f60e11b92506105d5915050565b506001600160e01b0319925050505b92915050565b6000806105e66109ea565b8060200190518101906105f991906116a4565b9392505050565b600061060a610a59565b6106148484610abe565b905061062360408501856116d2565b90506000036106355761063584610b91565b6105f982610bf6565b600080600061064b6109ea565b80602001905181019061065e91906116a4565b91509150836001600160a01b0316826001600160a01b0316636352211e836040518263ffffffff1660e01b815260040161069a91815260200190565b602060405180830381865afa1580156106b7573d6000803e3d6000fd5b505050506040513d601f19601f820116820180604052508101906106db9190611719565b6001600160a01b031614949350505050565b6106f63361063e565b80610714575033730576a174d229e3cfa37253523e645a78a0c91b57145b6107865760405162461bcd60e51b815260206004820152603e60248201527f4f6e6c792063616c6c61626c6520627920746865206d656368206f706572617460448201527f6f72206f722074686520656e74727920706f696e7420636f6e747261637400006064820152608401610468565b60018190556040518181527f66cbca4f3c64fecf1dcb9ce094abcf7f68c3450a1d4e3a8e917dd621edb4ebe09060200160405180910390a150565b6107c96109ea565b51156108175760405162461bcd60e51b815260206004820152601360248201527f416c726561647920696e697469616c697a6564000000000000000000000000006044820152606401610468565b61082081610c4f565b50565b6000600154341015610855576001546040516316912f0560e31b81523460048201526024810191909152604401610468565b61085f338361097a565b9050336001600160a01b03167f4bda649efe6b98b0f9c1d5e859c29e20910f45c66dabfe6fad4a4881f7faf9cc828460405161089c929190611661565b60405180910390a2919050565b60606108b43361063e565b806108d2575033730576a174d229e3cfa37253523e645a78a0c91b57145b6109445760405162461bcd60e51b815260206004820152603e60248201527f4f6e6c792063616c6c61626c6520627920746865206d656368206f706572617460448201527f6f72206f722074686520656e74727920706f696e7420636f6e747261637400006064820152608401610468565b600061095f8787878787156109595787610d2e565b5a610d2e565b925090508061097057815160208301fd5b5095945050505050565b6000828260405160200161098f929190611736565b60408051601f1981840301815291905280516020909101209392505050565b6000806109b96109ea565b8060200190518101906105d59190611719565b60008060006109dd87878787610e1e565b9150915061097081610ee2565b6060610a54610a4f604051606b60f91b6020820152602560fa1b60218201526bffffffffffffffffffffffff193060601b166022820152600160f81b60368201526000906037016040516020818303038152906040528051906020012060001c905090565b61102c565b905090565b33730576a174d229e3cfa37253523e645a78a0c91b5714610abc5760405162461bcd60e51b815260206004820152601c60248201527f6163636f756e743a206e6f742066726f6d20456e747279506f696e74000000006044820152606401610468565b565b600080610b18836040517f19457468657265756d205369676e6564204d6573736167653a0a3332000000006020820152603c8101829052600090605c01604051602081830303815290604052805190602001209050919050565b9050630b135d3f60e11b610b6e82610b346101408801886116d2565b8080601f0160208091040260200160405190810160405280939291908181526020018383808284376000920191909152506104ae92505050565b6001600160e01b03191614610b875760019150506105d5565b5060009392505050565b6000805460208301359180610ba58361176e565b91905055146108205760405162461bcd60e51b815260206004820152600d60248201527f496e76616c6964206e6f6e6365000000000000000000000000000000000000006044820152606401610468565b801561082057604051600090339060001990849084818181858888f193505050503d8060008114610c43576040519150601f19603f3d011682016040523d82523d6000602084013e610c48565b606091505b5050505050565b6000610c5a82611082565b905060008151602083016000f09050610cc9604051606b60f91b6020820152602560fa1b60218201526bffffffffffffffffffffffff193060601b166022820152600160f81b60368201526000906037016040516020818303038152906040528051906020012060001c905090565b6001600160a01b0316816001600160a01b031614610d295760405162461bcd60e51b815260206004820152600c60248201527f5772697465206661696c656400000000000000000000000000000000000000006044820152606401610468565b505050565b600060606001846001811115610d4657610d46611787565b03610db057866001600160a01b03168386604051610d64919061179d565b6000604051808303818686f4925050503d8060008114610da0576040519150601f19603f3d011682016040523d82523d6000602084013e610da5565b606091505b509092509050610e14565b866001600160a01b0316838787604051610dca919061179d565b600060405180830381858888f193505050503d8060008114610e08576040519150601f19603f3d011682016040523d82523d6000602084013e610e0d565b606091505b5090925090505b9550959350505050565b6000807f7fffffffffffffffffffffffffffffff5d576e7357a4501ddfe92f46681b20a0831115610e555750600090506003610ed9565b6040805160008082526020820180845289905260ff881692820192909252606081018690526080810185905260019060a0016020604051602081039080840390855afa158015610ea9573d6000803e3d6000fd5b5050604051601f1901519150506001600160a01b038116610ed257600060019250925050610ed9565b9150600090505b94509492505050565b6000816004811115610ef657610ef6611787565b03610efe5750565b6001816004811115610f1257610f12611787565b03610f5f5760405162461bcd60e51b815260206004820152601860248201527f45434453413a20696e76616c6964207369676e617475726500000000000000006044820152606401610468565b6002816004811115610f7357610f73611787565b03610fc05760405162461bcd60e51b815260206004820152601f60248201527f45434453413a20696e76616c6964207369676e6174757265206c656e677468006044820152606401610468565b6003816004811115610fd457610fd4611787565b036108205760405162461bcd60e51b815260206004820152602260248201527f45434453413a20696e76616c6964207369676e6174757265202773272076616c604482015261756560f01b6064820152608401610468565b6060813b6001811161104e575050604080516020810190915260008152919050565b80611058816117b9565b9150506040519150601f19601f602083010116820160405280825280600160208401853c50919050565b60608151600161109291906117d0565b826040516020016110a49291906117e3565b6040516020818303038152906040529050919050565b6001600160a01b038116811461082057600080fd5b60008083601f8401126110e157600080fd5b50813567ffffffffffffffff8111156110f957600080fd5b60208301915083602082850101111561111157600080fd5b9250929050565b60008060008060008060008060c0898b03121561113457600080fd5b883561113f816110ba565b9750602089013561114f816110ba565b9650604089013561115f816110ba565b955060608901359450608089013567ffffffffffffffff8082111561118357600080fd5b61118f8c838d016110cf565b909650945060a08b01359150808211156111a857600080fd5b506111b58b828c016110cf565b999c989b5096995094979396929594505050565b6000806000806000608086880312156111e157600080fd5b85356111ec816110ba565b945060208601356111fc816110ba565b935060408601359250606086013567ffffffffffffffff81111561121f57600080fd5b61122b888289016110cf565b969995985093965092949392505050565b634e487b7160e01b600052604160045260246000fd5b600082601f83011261126357600080fd5b813567ffffffffffffffff8082111561127e5761127e61123c565b604051601f8301601f19908116603f011681019082821181831017156112a6576112a661123c565b816040528381528660208588010111156112bf57600080fd5b836020870160208301376000602085830101528094505050505092915050565b600080604083850312156112f257600080fd5b82359150602083013567ffffffffffffffff81111561131057600080fd5b61131c85828601611252565b9150509250929050565b60008060006060848603121561133b57600080fd5b833567ffffffffffffffff81111561135257600080fd5b8401610160818703121561136557600080fd5b95602085013595506040909401359392505050565b60006020828403121561138c57600080fd5b81356105f9816110ba565b6000602082840312156113a957600080fd5b5035919050565b6000602082840312156113c257600080fd5b813567ffffffffffffffff8111156113d957600080fd5b6113e584828501611252565b949350505050565b60008083601f8401126113ff57600080fd5b50813567ffffffffffffffff81111561141757600080fd5b6020830191508360208260051b850101111561111157600080fd5b60008060008060008060008060a0898b03121561144e57600080fd5b8835611459816110ba565b97506020890135611469816110ba565b9650604089013567ffffffffffffffff8082111561148657600080fd5b6114928c838d016113ed565b909850965060608b01359150808211156114ab57600080fd5b6114b78c838d016113ed565b909650945060808b01359150808211156111a857600080fd5b600080600080600060a086880312156114e857600080fd5b85356114f3816110ba565b945060208601359350604086013567ffffffffffffffff81111561151657600080fd5b61152288828901611252565b93505060608601356002811061153757600080fd5b949793965091946080013592915050565b60005b8381101561156357818101518382015260200161154b565b50506000910152565b60008151808452611584816020860160208601611548565b601f01601f19169290920160200192915050565b6020815260006105f9602083018461156c565b600080604083850312156115be57600080fd5b82356115c9816110ba565b9150602083013567ffffffffffffffff81111561131057600080fd5b60008060008060008060a087890312156115fe57600080fd5b8635611609816110ba565b95506020870135611619816110ba565b94506040870135935060608701359250608087013567ffffffffffffffff81111561164357600080fd5b61164f89828a016110cf565b979a9699509497509295939492505050565b8281526040602082015260006113e5604083018461156c565b60006020828403121561168c57600080fd5b81516001600160e01b0319811681146105f957600080fd5b600080604083850312156116b757600080fd5b82516116c2816110ba565b6020939093015192949293505050565b6000808335601e198436030181126116e957600080fd5b83018035915067ffffffffffffffff82111561170457600080fd5b60200191503681900382131561111157600080fd5b60006020828403121561172b57600080fd5b81516105f9816110ba565b6001600160a01b03831681526040602082015260006113e5604083018461156c565b634e487b7160e01b600052601160045260246000fd5b60006001820161178057611780611758565b5060010190565b634e487b7160e01b600052602160045260246000fd5b600082516117af818460208701611548565b9190910192915050565b6000816117c8576117c8611758565b506000190190565b808201808211156105d5576105d5611758565b606360f81b815263ffffffff60e01b8360e01b1660018201527f80600e6000396000f3000000000000000000000000000000000000000000000060058201526000600e8201526000825161183e81600f850160208701611548565b91909101600f01939250505056fea26469706673582212202a03e14f0f05f58be9cbbba4646c39d989209350f0ee3edaaf0da00994a368d164736f6c63430008130033",
  "linkReferences": {},
  "deployedLinkReferences": {}
}